{
  "contractName": "dEvotingNFT",
  "abi": [
    {
      "inputs": [
        {
          "internalType": "string",
          "name": "name_",
          "type": "string"
        },
        {
          "internalType": "string",
          "name": "symbol_",
          "type": "string"
        },
        {
          "internalType": "string",
          "name": "uri_",
          "type": "string"
        },
        {
          "internalType": "uint256[]",
          "name": "tokenIds_",
          "type": "uint256[]"
        },
        {
          "internalType": "uint256[]",
          "name": "tokenSupplies_",
          "type": "uint256[]"
        }
      ],
      "stateMutability": "nonpayable",
      "type": "constructor"
    },
    {
      "anonymous": false,
      "inputs": [
        {
          "indexed": true,
          "internalType": "address",
          "name": "to",
          "type": "address"
        },
        {
          "indexed": true,
          "internalType": "uint256",
          "name": "tokenId",
          "type": "uint256"
        },
        {
          "indexed": false,
          "internalType": "uint256",
          "name": "quantity",
          "type": "uint256"
        }
      ],
      "name": "AdminMinted",
      "type": "event"
    },
    {
      "anonymous": false,
      "inputs": [
        {
          "indexed": true,
          "internalType": "address",
          "name": "account",
          "type": "address"
        },
        {
          "indexed": true,
          "internalType": "address",
          "name": "operator",
          "type": "address"
        },
        {
          "indexed": false,
          "internalType": "bool",
          "name": "approved",
          "type": "bool"
        }
      ],
      "name": "ApprovalForAll",
      "type": "event"
    },
    {
      "anonymous": false,
      "inputs": [
        {
          "indexed": true,
          "internalType": "address",
          "name": "to",
          "type": "address"
        },
        {
          "indexed": true,
          "internalType": "uint256",
          "name": "tokenId",
          "type": "uint256"
        },
        {
          "indexed": false,
          "internalType": "uint256",
          "name": "quantity",
          "type": "uint256"
        }
      ],
      "name": "Minted",
      "type": "event"
    },
    {
      "anonymous": false,
      "inputs": [
        {
          "indexed": false,
          "internalType": "address",
          "name": "account",
          "type": "address"
        }
      ],
      "name": "Paused",
      "type": "event"
    },
    {
      "anonymous": false,
      "inputs": [
        {
          "indexed": true,
          "internalType": "address",
          "name": "operator",
          "type": "address"
        },
        {
          "indexed": true,
          "internalType": "address",
          "name": "from",
          "type": "address"
        },
        {
          "indexed": true,
          "internalType": "address",
          "name": "to",
          "type": "address"
        },
        {
          "indexed": false,
          "internalType": "uint256[]",
          "name": "ids",
          "type": "uint256[]"
        },
        {
          "indexed": false,
          "internalType": "uint256[]",
          "name": "values",
          "type": "uint256[]"
        }
      ],
      "name": "TransferBatch",
      "type": "event"
    },
    {
      "anonymous": false,
      "inputs": [
        {
          "indexed": true,
          "internalType": "address",
          "name": "operator",
          "type": "address"
        },
        {
          "indexed": true,
          "internalType": "address",
          "name": "from",
          "type": "address"
        },
        {
          "indexed": true,
          "internalType": "address",
          "name": "to",
          "type": "address"
        },
        {
          "indexed": false,
          "internalType": "uint256",
          "name": "id",
          "type": "uint256"
        },
        {
          "indexed": false,
          "internalType": "uint256",
          "name": "value",
          "type": "uint256"
        }
      ],
      "name": "TransferSingle",
      "type": "event"
    },
    {
      "anonymous": false,
      "inputs": [
        {
          "indexed": false,
          "internalType": "string",
          "name": "value",
          "type": "string"
        },
        {
          "indexed": true,
          "internalType": "uint256",
          "name": "id",
          "type": "uint256"
        }
      ],
      "name": "URI",
      "type": "event"
    },
    {
      "anonymous": false,
      "inputs": [
        {
          "indexed": false,
          "internalType": "address",
          "name": "account",
          "type": "address"
        }
      ],
      "name": "Unpaused",
      "type": "event"
    },
    {
      "inputs": [
        {
          "internalType": "address",
          "name": "account",
          "type": "address"
        },
        {
          "internalType": "uint256",
          "name": "id",
          "type": "uint256"
        }
      ],
      "name": "balanceOf",
      "outputs": [
        {
          "internalType": "uint256",
          "name": "",
          "type": "uint256"
        }
      ],
      "stateMutability": "view",
      "type": "function"
    },
    {
      "inputs": [
        {
          "internalType": "address[]",
          "name": "accounts",
          "type": "address[]"
        },
        {
          "internalType": "uint256[]",
          "name": "ids",
          "type": "uint256[]"
        }
      ],
      "name": "balanceOfBatch",
      "outputs": [
        {
          "internalType": "uint256[]",
          "name": "",
          "type": "uint256[]"
        }
      ],
      "stateMutability": "view",
      "type": "function"
    },
    {
      "inputs": [
        {
          "internalType": "uint256",
          "name": "id",
          "type": "uint256"
        }
      ],
      "name": "exists",
      "outputs": [
        {
          "internalType": "bool",
          "name": "",
          "type": "bool"
        }
      ],
      "stateMutability": "view",
      "type": "function"
    },
    {
      "inputs": [
        {
          "internalType": "address",
          "name": "account",
          "type": "address"
        },
        {
          "internalType": "address",
          "name": "operator",
          "type": "address"
        }
      ],
      "name": "isApprovedForAll",
      "outputs": [
        {
          "internalType": "bool",
          "name": "",
          "type": "bool"
        }
      ],
      "stateMutability": "view",
      "type": "function"
    },
    {
      "inputs": [],
      "name": "locked",
      "outputs": [
        {
          "internalType": "bool",
          "name": "",
          "type": "bool"
        }
      ],
      "stateMutability": "view",
      "type": "function"
    },
    {
      "inputs": [],
      "name": "maxTokenId",
      "outputs": [
        {
          "internalType": "uint256",
          "name": "",
          "type": "uint256"
        }
      ],
      "stateMutability": "view",
      "type": "function"
    },
    {
      "inputs": [],
      "name": "mintPrice",
      "outputs": [
        {
          "internalType": "uint256",
          "name": "",
          "type": "uint256"
        }
      ],
      "stateMutability": "view",
      "type": "function"
    },
    {
      "inputs": [],
      "name": "owner",
      "outputs": [
        {
          "internalType": "address",
          "name": "",
          "type": "address"
        }
      ],
      "stateMutability": "view",
      "type": "function"
    },
    {
      "inputs": [],
      "name": "paused",
      "outputs": [
        {
          "internalType": "bool",
          "name": "",
          "type": "bool"
        }
      ],
      "stateMutability": "view",
      "type": "function"
    },
    {
      "inputs": [
        {
          "internalType": "address",
          "name": "from",
          "type": "address"
        },
        {
          "internalType": "address",
          "name": "to",
          "type": "address"
        },
        {
          "internalType": "uint256[]",
          "name": "ids",
          "type": "uint256[]"
        },
        {
          "internalType": "uint256[]",
          "name": "amounts",
          "type": "uint256[]"
        },
        {
          "internalType": "bytes",
          "name": "data",
          "type": "bytes"
        }
      ],
      "name": "safeBatchTransferFrom",
      "outputs": [],
      "stateMutability": "nonpayable",
      "type": "function"
    },
    {
      "inputs": [
        {
          "internalType": "address",
          "name": "from",
          "type": "address"
        },
        {
          "internalType": "address",
          "name": "to",
          "type": "address"
        },
        {
          "internalType": "uint256",
          "name": "id",
          "type": "uint256"
        },
        {
          "internalType": "uint256",
          "name": "amount",
          "type": "uint256"
        },
        {
          "internalType": "bytes",
          "name": "data",
          "type": "bytes"
        }
      ],
      "name": "safeTransferFrom",
      "outputs": [],
      "stateMutability": "nonpayable",
      "type": "function"
    },
    {
      "inputs": [
        {
          "internalType": "address",
          "name": "operator",
          "type": "address"
        },
        {
          "internalType": "bool",
          "name": "approved",
          "type": "bool"
        }
      ],
      "name": "setApprovalForAll",
      "outputs": [],
      "stateMutability": "nonpayable",
      "type": "function"
    },
    {
      "inputs": [
        {
          "internalType": "bytes4",
          "name": "interfaceId",
          "type": "bytes4"
        }
      ],
      "name": "supportsInterface",
      "outputs": [
        {
          "internalType": "bool",
          "name": "",
          "type": "bool"
        }
      ],
      "stateMutability": "view",
      "type": "function"
    },
    {
      "inputs": [
        {
          "internalType": "uint256",
          "name": "",
          "type": "uint256"
        }
      ],
      "name": "tokenMaxSupplies",
      "outputs": [
        {
          "internalType": "uint256",
          "name": "",
          "type": "uint256"
        }
      ],
      "stateMutability": "view",
      "type": "function"
    },
    {
      "inputs": [
        {
          "internalType": "uint256",
          "name": "id",
          "type": "uint256"
        }
      ],
      "name": "totalSupply",
      "outputs": [
        {
          "internalType": "uint256",
          "name": "",
          "type": "uint256"
        }
      ],
      "stateMutability": "view",
      "type": "function"
    },
    {
      "inputs": [],
      "name": "name",
      "outputs": [
        {
          "internalType": "string",
          "name": "",
          "type": "string"
        }
      ],
      "stateMutability": "view",
      "type": "function"
    },
    {
      "inputs": [],
      "name": "symbol",
      "outputs": [
        {
          "internalType": "string",
          "name": "",
          "type": "string"
        }
      ],
      "stateMutability": "view",
      "type": "function"
    },
    {
      "inputs": [
        {
          "internalType": "uint256",
          "name": "mintCost",
          "type": "uint256"
        }
      ],
      "name": "changeMintCost",
      "outputs": [],
      "stateMutability": "nonpayable",
      "type": "function"
    },
    {
      "inputs": [
        {
          "internalType": "string",
          "name": "uri_",
          "type": "string"
        }
      ],
      "name": "setURI",
      "outputs": [],
      "stateMutability": "nonpayable",
      "type": "function"
    },
    {
      "inputs": [
        {
          "internalType": "uint256",
          "name": "id",
          "type": "uint256"
        }
      ],
      "name": "uri",
      "outputs": [
        {
          "internalType": "string",
          "name": "",
          "type": "string"
        }
      ],
      "stateMutability": "view",
      "type": "function"
    },
    {
      "inputs": [],
      "name": "pause",
      "outputs": [],
      "stateMutability": "nonpayable",
      "type": "function"
    },
    {
      "inputs": [],
      "name": "unpause",
      "outputs": [],
      "stateMutability": "nonpayable",
      "type": "function"
    },
    {
      "inputs": [
        {
          "internalType": "uint256",
          "name": "_mintCost",
          "type": "uint256"
        },
        {
          "internalType": "uint64",
          "name": "mintsPerAddressLimit",
          "type": "uint64"
        }
      ],
      "name": "allowPublicMint",
      "outputs": [],
      "stateMutability": "nonpayable",
      "type": "function"
    },
    {
      "inputs": [
        {
          "internalType": "address",
          "name": "from",
          "type": "address"
        },
        {
          "internalType": "uint256",
          "name": "id",
          "type": "uint256"
        },
        {
          "internalType": "uint256",
          "name": "amount",
          "type": "uint256"
        }
      ],
      "name": "burn",
      "outputs": [],
      "stateMutability": "nonpayable",
      "type": "function"
    },
    {
      "inputs": [
        {
          "internalType": "address",
          "name": "from",
          "type": "address"
        },
        {
          "internalType": "uint256[]",
          "name": "ids",
          "type": "uint256[]"
        },
        {
          "internalType": "uint256[]",
          "name": "amounts",
          "type": "uint256[]"
        }
      ],
      "name": "burnBatch",
      "outputs": [],
      "stateMutability": "nonpayable",
      "type": "function"
    },
    {
      "inputs": [
        {
          "internalType": "address",
          "name": "to",
          "type": "address"
        },
        {
          "internalType": "uint256",
          "name": "id",
          "type": "uint256"
        },
        {
          "internalType": "uint256",
          "name": "amount",
          "type": "uint256"
        }
      ],
      "name": "adminMint",
      "outputs": [],
      "stateMutability": "nonpayable",
      "type": "function"
    },
    {
      "inputs": [
        {
          "internalType": "address",
          "name": "to",
          "type": "address"
        },
        {
          "internalType": "uint256",
          "name": "id",
          "type": "uint256"
        },
        {
          "internalType": "uint256",
          "name": "amount",
          "type": "uint256"
        }
      ],
      "name": "mint",
      "outputs": [],
      "stateMutability": "payable",
      "type": "function"
    },
    {
      "inputs": [
        {
          "internalType": "address",
          "name": "to",
          "type": "address"
        },
        {
          "internalType": "uint256[]",
          "name": "ids",
          "type": "uint256[]"
        },
        {
          "internalType": "uint256[]",
          "name": "amounts",
          "type": "uint256[]"
        }
      ],
      "name": "mintBatch",
      "outputs": [],
      "stateMutability": "payable",
      "type": "function"
    },
    {
      "inputs": [
        {
          "internalType": "address",
          "name": "from",
          "type": "address"
        },
        {
          "internalType": "address",
          "name": "to",
          "type": "address"
        },
        {
          "internalType": "uint256[]",
          "name": "ids",
          "type": "uint256[]"
        },
        {
          "internalType": "uint256[]",
          "name": "amounts",
          "type": "uint256[]"
        },
        {
          "internalType": "bytes",
          "name": "data",
          "type": "bytes"
        }
      ],
      "name": "batchTransferFrom",
      "outputs": [],
      "stateMutability": "nonpayable",
      "type": "function"
    },
    {
      "inputs": [
        {
          "internalType": "address",
          "name": "from",
          "type": "address"
        },
        {
          "internalType": "address",
          "name": "to",
          "type": "address"
        },
        {
          "internalType": "uint256",
          "name": "id",
          "type": "uint256"
        },
        {
          "internalType": "uint256",
          "name": "amount",
          "type": "uint256"
        },
        {
          "internalType": "bytes",
          "name": "data",
          "type": "bytes"
        }
      ],
      "name": "transferFrom",
      "outputs": [],
      "stateMutability": "nonpayable",
      "type": "function"
    },
    {
      "inputs": [
        {
          "internalType": "uint256",
          "name": "id",
          "type": "uint256"
        },
        {
          "internalType": "uint256",
          "name": "amount",
          "type": "uint256"
        }
      ],
      "name": "limitNotExceeded",
      "outputs": [
        {
          "internalType": "bool",
          "name": "",
          "type": "bool"
        }
      ],
      "stateMutability": "view",
      "type": "function"
    },
    {
      "inputs": [
        {
          "internalType": "address",
          "name": "minter",
          "type": "address"
        },
        {
          "internalType": "uint256",
          "name": "amount",
          "type": "uint256"
        }
      ],
      "name": "checkMintLimit",
      "outputs": [
        {
          "internalType": "bool",
          "name": "",
          "type": "bool"
        }
      ],
      "stateMutability": "view",
      "type": "function"
    },
    {
      "inputs": [
        {
          "internalType": "uint256[]",
          "name": "tokenIds_",
          "type": "uint256[]"
        },
        {
          "internalType": "uint256[]",
          "name": "tokenSupplies_",
          "type": "uint256[]"
        },
        {
          "internalType": "uint256",
          "name": "maxTokenId_",
          "type": "uint256"
        }
      ],
      "name": "addTokensAndChangeMaxSupply",
      "outputs": [],
      "stateMutability": "nonpayable",
      "type": "function"
    }
  ],
  "bytecode": "0x60806040523480156200001157600080fd5b506040516200396b3803806200396b833981016040819052620000349162000301565b826200004081620000ab565b506004805460ff19169055600b8054610100600160a81b0319166101003302179055600c62000070868262000470565b50600d6200007f858262000470565b506200008c8282620000bd565b5050600880546001600160401b0319166001179055506200057a915050565b6002620000b9828262000470565b5050565b8051825114620001235760405162461bcd60e51b815260206004820152602760248201527f6445766f74696e67204e46543a204944732f537570706c79206172697479206d6044820152660d2e6dac2e8c6d60cb1b606482015260840160405180910390fd5b60005b825181101562000196578181815181106200014557620001456200053c565b6020026020010151600660008584815181106200016657620001666200053c565b602002602001015181526020019081526020016000208190555080806200018d9062000552565b91505062000126565b505050565b634e487b7160e01b600052604160045260246000fd5b604051601f8201601f191681016001600160401b0381118282101715620001dc57620001dc6200019b565b604052919050565b600082601f830112620001f657600080fd5b81516001600160401b038111156200021257620002126200019b565b602062000228601f8301601f19168201620001b1565b82815285828487010111156200023d57600080fd5b60005b838110156200025d57858101830151828201840152820162000240565b838111156200026f5760008385840101525b5095945050505050565b600082601f8301126200028b57600080fd5b815160206001600160401b03821115620002a957620002a96200019b565b8160051b620002ba828201620001b1565b9283528481018201928281019087851115620002d557600080fd5b83870192505b84831015620002f657825182529183019190830190620002db565b979650505050505050565b600080600080600060a086880312156200031a57600080fd5b85516001600160401b03808211156200033257600080fd5b6200034089838a01620001e4565b965060208801519150808211156200035757600080fd5b6200036589838a01620001e4565b955060408801519150808211156200037c57600080fd5b6200038a89838a01620001e4565b94506060880151915080821115620003a157600080fd5b620003af89838a0162000279565b93506080880151915080821115620003c657600080fd5b50620003d58882890162000279565b9150509295509295909350565b600181811c90821680620003f757607f821691505b6020821081036200041857634e487b7160e01b600052602260045260246000fd5b50919050565b601f8211156200019657600081815260208120601f850160051c81016020861015620004475750805b601f850160051c820191505b81811015620004685782815560010162000453565b505050505050565b81516001600160401b038111156200048c576200048c6200019b565b620004a4816200049d8454620003e2565b846200041e565b602080601f831160018114620004dc5760008415620004c35750858301515b600019600386901b1c1916600185901b17855562000468565b600085815260208120601f198616915b828110156200050d57888601518255948401946001909101908401620004ec565b50858210156200052c5787850151600019600388901b60f8161c191681555b5050505050600190811b01905550565b634e487b7160e01b600052603260045260246000fd5b6000600182016200057357634e487b7160e01b600052601160045260246000fd5b5060010190565b6133e1806200058a6000396000f3fe6080604052600436106101ec5760003560e01c80638456cb591161010d578063cf309012116100a0578063e985e9c51161006f578063e985e9c51461058e578063efb8bcf4146105d7578063f06e6c9c146105f7578063f242432a14610617578063f5298aca1461063757600080fd5b8063cf30901214610521578063d1ca712c1461053b578063d81d0a151461055b578063db6231341461056e57600080fd5b8063a22cb465116100dc578063a22cb46514610487578063ac2ffd12146104a7578063bd85b039146104d4578063c928208b1461050157600080fd5b80638456cb591461040a5780638da5cb5b1461041f57806391ba317a1461045c57806395d89b411461047257600080fd5b80633f4ba83a11610185578063605105f011610154578063605105f0146103945780636817c76c146103b45780636b20c454146103ca5780637f1921ef146103ea57600080fd5b80633f4ba83a1461030b5780634e1273f4146103205780634f558e791461034d5780635c975abb1461037c57600080fd5b806306fdde03116101c157806306fdde03146102965780630e89341c146102b8578063156e29f6146102d85780632eb2c2d6146102eb57600080fd5b80624a84cb146101f1578062fdd58e1461021357806301ffc9a71461024657806302fe530514610276575b600080fd5b3480156101fd57600080fd5b5061021161020c366004612643565b610657565b005b34801561021f57600080fd5b5061023361022e366004612676565b610786565b6040519081526020015b60405180910390f35b34801561025257600080fd5b506102666102613660046126b6565b610818565b604051901515815260200161023d565b34801561028257600080fd5b50610211610291366004612772565b61086a565b3480156102a257600080fd5b506102ab610949565b60405161023d9190612812565b3480156102c457600080fd5b506102ab6102d3366004612825565b6109db565b6102116102e6366004612643565b610a73565b3480156102f757600080fd5b506102116103063660046128f2565b610b7b565b34801561031757600080fd5b50610211610c12565b34801561032c57600080fd5b5061034061033b36600461299b565b610c4b565b60405161023d9190612aa0565b34801561035957600080fd5b50610266610368366004612825565b600090815260036020526040902054151590565b34801561038857600080fd5b5060045460ff16610266565b3480156103a057600080fd5b506102116103af366004612ab3565b610d74565b3480156103c057600080fd5b5061023360075481565b3480156103d657600080fd5b506102116103e5366004612b17565b610da8565b3480156103f657600080fd5b50610211610405366004612825565b610db8565b34801561041657600080fd5b50610211610e58565b34801561042b57600080fd5b50600b546104449061010090046001600160a01b031681565b6040516001600160a01b03909116815260200161023d565b34801561046857600080fd5b50610233600a5481565b34801561047e57600080fd5b506102ab610e8f565b34801561049357600080fd5b506102116104a2366004612b8a565b610e9e565b3480156104b357600080fd5b506102336104c2366004612825565b60066020526000908152604090205481565b3480156104e057600080fd5b506102336104ef366004612825565b60009081526003602052604090205490565b34801561050d57600080fd5b5061026661051c366004612676565b610ead565b34801561052d57600080fd5b50600b546102669060ff1681565b34801561054757600080fd5b50610211610556366004612bc6565b610f4f565b610211610569366004612b17565b611150565b34801561057a57600080fd5b50610211610589366004612c32565b61133a565b34801561059a57600080fd5b506102666105a9366004612c63565b6001600160a01b03918216600090815260016020908152604080832093909416825291909152205460ff1690565b3480156105e357600080fd5b506102666105f2366004612c96565b6113a0565b34801561060357600080fd5b506102116106123660046128f2565b6114db565b34801561062357600080fd5b50610211610632366004612ab3565b61150f565b34801561064357600080fd5b50610211610652366004612643565b611596565b60045460ff16156106a25760405162461bcd60e51b815260206004820152601060248201526f14185d5cd8589b194e881c185d5cd95960821b60448201526064015b60405180910390fd5b600b5461010090046001600160a01b031633146106d15760405162461bcd60e51b815260040161069990612cb8565b6001600160a01b0383166106f75760405162461bcd60e51b815260040161069990612cef565b61070182826113a0565b5061070d335b82610ead565b50610729838383604051806020016040528060008152506115a1565b6001600160a01b03831660008181526005602052604090819020839055518391907f9ea69fe563383aa6c77c5d921052ea81ff8e9bbdcc9aa2bfebfa25a014d3a7f0906107799085815260200190565b60405180910390a3505050565b60006001600160a01b0383166107f25760405162461bcd60e51b815260206004820152602b60248201527f455243313135353a2062616c616e636520717565727920666f7220746865207a60448201526a65726f206164647265737360a81b6064820152608401610699565b506000908152602081815260408083206001600160a01b03949094168352929052205490565b60006001600160e01b03198216636cdb3d1360e11b148061084957506001600160e01b031982166303a24d0760e21b145b8061086457506301ffc9a760e01b6001600160e01b03198316145b92915050565b600b5461010090046001600160a01b031633146108995760405162461bcd60e51b815260040161069990612cb8565b806040516020016108aa9190612d30565b604051602081830303815290604052805190602001206108ca600061168a565b6040516020016108da9190612d30565b604051602081830303815290604052805190602001200361093d5760405162461bcd60e51b815260206004820152601b60248201527f4552524f523a205552492073616d652061732070726576696f757300000000006044820152606401610699565b6109468161171e565b50565b6060600c805461095890612d4c565b80601f016020809104026020016040519081016040528092919081815260200182805461098490612d4c565b80156109d15780601f106109a6576101008083540402835291602001916109d1565b820191906000526020600020905b8154815290600101906020018083116109b457829003601f168201915b5050505050905090565b600081815260036020526040902054606090610a395760405162461bcd60e51b815260206004820152601f60248201527f6445766f74696e67204e46543a204e6f6e6578697374656e7420746f6b656e006044820152606401610699565b610a43600061168a565b610a4c8361172a565b604051602001610a5d929190612d86565b6040516020818303038152906040529050919050565b600e5460ff161515600114610a9a5760405162461bcd60e51b815260040161069990612dc5565b346001600160a01b038416610ac15760405162461bcd60e51b815260040161069990612cef565b600754610ace9083611832565b8114610aec5760405162461bcd60e51b815260040161069990612e0a565b610af683836113a0565b50610b013383610ead565b50610b1d848484604051806020016040528060008152506115a1565b6001600160a01b03841660008181526005602052604090819020849055518491907f25b428dfde728ccfaddad7e29e4ac23c24ed7fd1a6e3e3f91894a9a073f5dfff90610b6d9086815260200190565b60405180910390a350505050565b6001600160a01b038516331480610b975750610b9785336105a9565b610bfe5760405162461bcd60e51b815260206004820152603260248201527f455243313135353a207472616e736665722063616c6c6572206973206e6f74206044820152711bdddb995c881b9bdc88185c1c1c9bdd995960721b6064820152608401610699565b610c0b8585858585611845565b5050505050565b600b5461010090046001600160a01b03163314610c415760405162461bcd60e51b815260040161069990612cb8565b610c496119e7565b565b60608151835114610cb05760405162461bcd60e51b815260206004820152602960248201527f455243313135353a206163636f756e747320616e6420696473206c656e677468604482015268040dad2e6dac2e8c6d60bb1b6064820152608401610699565b600083516001600160401b03811115610ccb57610ccb6126d3565b604051908082528060200260200182016040528015610cf4578160200160208202803683370190505b50905060005b8451811015610d6c57610d3f858281518110610d1857610d18612e5b565b6020026020010151858381518110610d3257610d32612e5b565b6020026020010151610786565b828281518110610d5157610d51612e5b565b6020908102919091010152610d6581612e87565b9050610cfa565b509392505050565b600e5460ff161515600114610d9b5760405162461bcd60e51b815260040161069990612dc5565b610c0b858585858561150f565b610db3838383611a7a565b505050565b600b5461010090046001600160a01b03163314610de75760405162461bcd60e51b815260040161069990612cb8565b6007548103610e535760405162461bcd60e51b815260206004820152603260248201527f6445766f74696e67204e46543a206d696e7420436f73742063616e6e6f742062604482015271652073616d652061732070726576696f757360701b6064820152608401610699565b600755565b600b5461010090046001600160a01b03163314610e875760405162461bcd60e51b815260040161069990612cb8565b610c49611c18565b6060600d805461095890612d4c565b610ea9338383611c93565b5050565b6008546001600160a01b03831660009081526005602052604081205490916001600160401b031690610edf9084611d6b565b1115610f465760405162461bcd60e51b815260206004820152603060248201527f6445766f74696e67204e46543a206d6178204e4654206d696e7473207065722060448201526f1859191c995cdcc8195e18d95959195960821b6064820152608401610699565b50600192915050565b600b5461010090046001600160a01b03163314610f7e5760405162461bcd60e51b815260040161069990612cb8565b8151835114610fdf5760405162461bcd60e51b815260206004820152602760248201527f6445766f74696e67204e46543a204944732f537570706c79206172697479206d6044820152660d2e6dac2e8c6d60cb1b6064820152608401610699565b808351600a54610fef9190612ea0565b11156110535760405162461bcd60e51b815260206004820152602d60248201527f6445766f74696e67204e46543a20746f6b656e73206164646564206d69736d6160448201526c746368206d6178537570706c7960981b6064820152608401610699565b60005b83518110156111485761109084828151811061107457611074612e5b565b6020026020010151600090815260036020526040902054151590565b156110eb5760405162461bcd60e51b815260206004820152602560248201527f6445766f74696e67204e46543a20746f6b656e20494420616c72656164792065604482015264786973747360d81b6064820152608401610699565b8281815181106110fd576110fd612e5b565b60200260200101516006600086848151811061111b5761111b612e5b565b6020026020010151815260200190815260200160002081905550808061114090612e87565b915050611056565b50600a555050565b600e5460ff1615156001146111775760405162461bcd60e51b815260040161069990612dc5565b3460006001600160a01b0385166111a05760405162461bcd60e51b815260040161069990612cef565b60005b8351811015611222576111e88582815181106111c1576111c1612e5b565b60200260200101518583815181106111db576111db612e5b565b60200260200101516113a0565b508381815181106111fb576111fb612e5b565b60200260200101518261120e9190612ea0565b91508061121a81612e87565b9150506111a3565b506007546112309082611832565b821461124e5760405162461bcd60e51b815260040161069990612e0a565b61125733610707565b5061127385858560405180602001604052806000815250611d77565b60005b83518110156113325761128d600980546001019055565b6001600160a01b038616600090815260056020526040902082905584518590829081106112bc576112bc612e5b565b6020026020010151866001600160a01b03167f25b428dfde728ccfaddad7e29e4ac23c24ed7fd1a6e3e3f91894a9a073f5dfff86848151811061130157611301612e5b565b602002602001015160405161131891815260200190565b60405180910390a38061132a81612e87565b915050611276565b505050505050565b600b5461010090046001600160a01b031633146113695760405162461bcd60e51b815260040161069990612cb8565b600e805460ff19166001179055600791909155600880546001600160401b0390921667ffffffffffffffff19909216919091179055565b60008281526006602052604081205415611436576000838152600660205260409020546113e3836113dd8660009081526003602052604090205490565b90611d6b565b11156114315760405162461bcd60e51b815260206004820181905260248201527f6445766f74696e67204e46543a20494420737570706c792065786365656465646044820152606401610699565b610f46565b6000838152600360205260409020541561146c5760405162461bcd60e51b81526020600482015260006024820152604401610699565b8160011480156114855750600a54611482611ed1565b11155b610f465760405162461bcd60e51b815260206004820152602160248201527f6445766f74696e67204e46543a204e465420737570706c7920657863656564656044820152601960fa1b6064820152608401610699565b600e5460ff1615156001146115025760405162461bcd60e51b815260040161069990612dc5565b610c0b8585858585610b7b565b6001600160a01b03851633148061152b575061152b85336105a9565b6115895760405162461bcd60e51b815260206004820152602960248201527f455243313135353a2063616c6c6572206973206e6f74206f776e6572206e6f7260448201526808185c1c1c9bdd995960ba1b6064820152608401610699565b610c0b8585858585611ee1565b610db3838383612019565b6001600160a01b0384166115c75760405162461bcd60e51b815260040161069990612eb8565b3360006115d385612131565b905060006115e085612131565b90506115f18360008985858961217c565b6000868152602081815260408083206001600160a01b038b16845290915281208054879290611621908490612ea0565b909155505060408051878152602081018790526001600160a01b03808a1692600092918716917fc3d58168c5ae7397731d063d5bbf3d657854427343f4c083240f7aacaa2d0f62910160405180910390a461168183600089898989612298565b50505050505050565b60606002805461169990612d4c565b80601f01602080910402602001604051908101604052809291908181526020018280546116c590612d4c565b80156117125780601f106116e757610100808354040283529160200191611712565b820191906000526020600020905b8154815290600101906020018083116116f557829003601f168201915b50505050509050919050565b6002610ea98282612f3f565b6060816000036117515750506040805180820190915260018152600360fc1b602082015290565b8160005b811561177b578061176581612e87565b91506117749050600a83613014565b9150611755565b6000816001600160401b03811115611795576117956126d3565b6040519080825280601f01601f1916602001820160405280156117bf576020820181803683370190505b5090505b841561182a576117d4600183613028565b91506117e1600a8661303f565b6117ec906030612ea0565b60f81b81838151811061180157611801612e5b565b60200101906001600160f81b031916908160001a905350611823600a86613014565b94506117c3565b949350505050565b600061183e8284613053565b9392505050565b81518351146118665760405162461bcd60e51b815260040161069990613072565b6001600160a01b03841661188c5760405162461bcd60e51b8152600401610699906130ba565b3361189b81878787878761217c565b60005b84518110156119815760008582815181106118bb576118bb612e5b565b6020026020010151905060008583815181106118d9576118d9612e5b565b602090810291909101810151600084815280835260408082206001600160a01b038e1683529093529190912054909150818110156119295760405162461bcd60e51b8152600401610699906130ff565b6000838152602081815260408083206001600160a01b038e8116855292528083208585039055908b16825281208054849290611966908490612ea0565b925050819055505050508061197a90612e87565b905061189e565b50846001600160a01b0316866001600160a01b0316826001600160a01b03167f4a39dc06d4c0dbc64b70af90fd698a233a518aa5d07e595d983b8c0526c8f7fb87876040516119d1929190613149565b60405180910390a46113328187878787876123f3565b60045460ff16611a305760405162461bcd60e51b815260206004820152601460248201527314185d5cd8589b194e881b9bdd081c185d5cd95960621b6044820152606401610699565b6004805460ff191690557f5db9ee0a495bf2e6ff9c91a7834c1ba4fdd244a5e8aa4e537bd38aeae4b073aa335b6040516001600160a01b03909116815260200160405180910390a1565b6001600160a01b038316611aa05760405162461bcd60e51b815260040161069990613177565b8051825114611ac15760405162461bcd60e51b815260040161069990613072565b6000339050611ae48185600086866040518060200160405280600081525061217c565b60005b8351811015611ba9576000848281518110611b0457611b04612e5b565b602002602001015190506000848381518110611b2257611b22612e5b565b602090810291909101810151600084815280835260408082206001600160a01b038c168352909352919091205490915081811015611b725760405162461bcd60e51b8152600401610699906131ba565b6000928352602083815260408085206001600160a01b038b1686529091529092209103905580611ba181612e87565b915050611ae7565b5060006001600160a01b0316846001600160a01b0316826001600160a01b03167f4a39dc06d4c0dbc64b70af90fd698a233a518aa5d07e595d983b8c0526c8f7fb8686604051611bfa929190613149565b60405180910390a46040805160208101909152600090525b50505050565b60045460ff1615611c5e5760405162461bcd60e51b815260206004820152601060248201526f14185d5cd8589b194e881c185d5cd95960821b6044820152606401610699565b6004805460ff191660011790557f62e78cea01bee320cd4e420270b5ea74000d11b0c9f74754ebdbfc544b05a258611a5d3390565b816001600160a01b0316836001600160a01b031603611d065760405162461bcd60e51b815260206004820152602960248201527f455243313135353a2073657474696e6720617070726f76616c20737461747573604482015268103337b91039b2b63360b91b6064820152608401610699565b6001600160a01b03838116600081815260016020908152604080832094871680845294825291829020805460ff191686151590811790915591519182527f17307eab39ab6107e8899845ad3d59bd9653f200f220920489ca2b5937696c319101610779565b600061183e8284612ea0565b6001600160a01b038416611d9d5760405162461bcd60e51b815260040161069990612eb8565b8151835114611dbe5760405162461bcd60e51b815260040161069990613072565b33611dce8160008787878761217c565b60005b8451811015611e6957838181518110611dec57611dec612e5b565b6020026020010151600080878481518110611e0957611e09612e5b565b602002602001015181526020019081526020016000206000886001600160a01b03166001600160a01b031681526020019081526020016000206000828254611e519190612ea0565b90915550819050611e6181612e87565b915050611dd1565b50846001600160a01b031660006001600160a01b0316826001600160a01b03167f4a39dc06d4c0dbc64b70af90fd698a233a518aa5d07e595d983b8c0526c8f7fb8787604051611eba929190613149565b60405180910390a4610c0b816000878787876123f3565b6000611edc60095490565b905090565b6001600160a01b038416611f075760405162461bcd60e51b8152600401610699906130ba565b336000611f1385612131565b90506000611f2085612131565b9050611f3083898985858961217c565b6000868152602081815260408083206001600160a01b038c16845290915290205485811015611f715760405162461bcd60e51b8152600401610699906130ff565b6000878152602081815260408083206001600160a01b038d8116855292528083208985039055908a16825281208054889290611fae908490612ea0565b909155505060408051888152602081018890526001600160a01b03808b16928c821692918816917fc3d58168c5ae7397731d063d5bbf3d657854427343f4c083240f7aacaa2d0f62910160405180910390a461200e848a8a8a8a8a612298565b505050505050505050565b6001600160a01b03831661203f5760405162461bcd60e51b815260040161069990613177565b33600061204b84612131565b9050600061205884612131565b90506120788387600085856040518060200160405280600081525061217c565b6000858152602081815260408083206001600160a01b038a168452909152902054848110156120b95760405162461bcd60e51b8152600401610699906131ba565b6000868152602081815260408083206001600160a01b038b81168086529184528285208a8703905582518b81529384018a90529092908816917fc3d58168c5ae7397731d063d5bbf3d657854427343f4c083240f7aacaa2d0f62910160405180910390a4604080516020810190915260009052611681565b6040805160018082528183019092526060916000919060208083019080368337019050509050828160008151811061216b5761216b612e5b565b602090810291909101015292915050565b61218a8686868686866124ae565b60045460ff16156121ef5760405162461bcd60e51b815260206004820152602960248201527f6445766f74696e67204e46543a20746f6b656e207472616e73666572207768696044820152681b19481c185d5cd95960ba1b6064820152608401610699565b6001600160a01b0385166113325760005b83518110156116815761225a83828151811061221e5761221e612e5b565b602002602001015160056000886001600160a01b03166001600160a01b0316815260200190815260200160002054611d6b90919063ffffffff16565b6001600160a01b03861660009081526005602052604081208054909190612282908490612ea0565b90915550612291905081612e87565b9050612200565b6001600160a01b0384163b156113325760405163f23a6e6160e01b81526001600160a01b0385169063f23a6e61906122dc90899089908890889088906004016131fe565b6020604051808303816000875af1925050508015612317575060408051601f3d908101601f1916820190925261231491810190613243565b60015b6123c357612323613260565b806308c379a00361235c575061233761327c565b80612342575061235e565b8060405162461bcd60e51b81526004016106999190612812565b505b60405162461bcd60e51b815260206004820152603460248201527f455243313135353a207472616e7366657220746f206e6f6e20455243313135356044820152732932b1b2b4bb32b91034b6b83632b6b2b73a32b960611b6064820152608401610699565b6001600160e01b0319811663f23a6e6160e01b146116815760405162461bcd60e51b815260040161069990613305565b6001600160a01b0384163b156113325760405163bc197c8160e01b81526001600160a01b0385169063bc197c8190612437908990899088908890889060040161334d565b6020604051808303816000875af1925050508015612472575060408051601f3d908101601f1916820190925261246f91810190613243565b60015b61247e57612323613260565b6001600160e01b0319811663bc197c8160e01b146116815760405162461bcd60e51b815260040161069990613305565b6001600160a01b0385166125355760005b8351811015612533578281815181106124da576124da612e5b565b6020026020010151600360008684815181106124f8576124f8612e5b565b60200260200101518152602001908152602001600020600082825461251d9190612ea0565b9091555061252c905081612e87565b90506124bf565b505b6001600160a01b0384166113325760005b835181101561168157600084828151811061256357612563612e5b565b60200260200101519050600084838151811061258157612581612e5b565b60200260200101519050600060036000848152602001908152602001600020549050818110156126045760405162461bcd60e51b815260206004820152602860248201527f455243313135353a206275726e20616d6f756e74206578636565647320746f74604482015267616c537570706c7960c01b6064820152608401610699565b6000928352600360205260409092209103905561262081612e87565b9050612546565b80356001600160a01b038116811461263e57600080fd5b919050565b60008060006060848603121561265857600080fd5b61266184612627565b95602085013595506040909401359392505050565b6000806040838503121561268957600080fd5b61269283612627565b946020939093013593505050565b6001600160e01b03198116811461094657600080fd5b6000602082840312156126c857600080fd5b813561183e816126a0565b634e487b7160e01b600052604160045260246000fd5b601f8201601f191681016001600160401b038111828210171561270e5761270e6126d3565b6040525050565b60006001600160401b0383111561272e5761272e6126d3565b604051612745601f8501601f1916602001826126e9565b80915083815284848401111561275a57600080fd5b83836020830137600060208583010152509392505050565b60006020828403121561278457600080fd5b81356001600160401b0381111561279a57600080fd5b8201601f810184136127ab57600080fd5b61182a84823560208401612715565b60005b838110156127d55781810151838201526020016127bd565b83811115611c125750506000910152565b600081518084526127fe8160208601602086016127ba565b601f01601f19169290920160200192915050565b60208152600061183e60208301846127e6565b60006020828403121561283757600080fd5b5035919050565b60006001600160401b03821115612857576128576126d3565b5060051b60200190565b600082601f83011261287257600080fd5b8135602061287f8261283e565b60405161288c82826126e9565b83815260059390931b85018201928281019150868411156128ac57600080fd5b8286015b848110156128c757803583529183019183016128b0565b509695505050505050565b600082601f8301126128e357600080fd5b61183e83833560208501612715565b600080600080600060a0868803121561290a57600080fd5b61291386612627565b945061292160208701612627565b935060408601356001600160401b038082111561293d57600080fd5b61294989838a01612861565b9450606088013591508082111561295f57600080fd5b61296b89838a01612861565b9350608088013591508082111561298157600080fd5b5061298e888289016128d2565b9150509295509295909350565b600080604083850312156129ae57600080fd5b82356001600160401b03808211156129c557600080fd5b818501915085601f8301126129d957600080fd5b813560206129e68261283e565b6040516129f382826126e9565b83815260059390931b8501820192828101915089841115612a1357600080fd5b948201945b83861015612a3857612a2986612627565b82529482019490820190612a18565b96505086013592505080821115612a4e57600080fd5b50612a5b85828601612861565b9150509250929050565b600081518084526020808501945080840160005b83811015612a9557815187529582019590820190600101612a79565b509495945050505050565b60208152600061183e6020830184612a65565b600080600080600060a08688031215612acb57600080fd5b612ad486612627565b9450612ae260208701612627565b9350604086013592506060860135915060808601356001600160401b03811115612b0b57600080fd5b61298e888289016128d2565b600080600060608486031215612b2c57600080fd5b612b3584612627565b925060208401356001600160401b0380821115612b5157600080fd5b612b5d87838801612861565b93506040860135915080821115612b7357600080fd5b50612b8086828701612861565b9150509250925092565b60008060408385031215612b9d57600080fd5b612ba683612627565b915060208301358015158114612bbb57600080fd5b809150509250929050565b600080600060608486031215612bdb57600080fd5b83356001600160401b0380821115612bf257600080fd5b612bfe87838801612861565b94506020860135915080821115612c1457600080fd5b50612c2186828701612861565b925050604084013590509250925092565b60008060408385031215612c4557600080fd5b8235915060208301356001600160401b0381168114612bbb57600080fd5b60008060408385031215612c7657600080fd5b612c7f83612627565b9150612c8d60208401612627565b90509250929050565b60008060408385031215612ca957600080fd5b50508035926020909101359150565b60208082526018908201527f6445766f74696e67204e46543a206f6e6c79206f776e65720000000000000000604082015260600190565b60208082526021908201527f6445766f74696e67204e46543a20416464726573732063616e6e6f74206265206040820152600360fc1b606082015260800190565b60008251612d428184602087016127ba565b9190910192915050565b600181811c90821680612d6057607f821691505b602082108103612d8057634e487b7160e01b600052602260045260246000fd5b50919050565b60008351612d988184602088016127ba565b835190830190612dac8183602088016127ba565b64173539b7b760d91b9101908152600501949350505050565b60208082526025908201527f6445766f74696e67204e46543a207075626c6963206d696e74206e6f7420616c6040820152641b1bddd95960da1b606082015260800190565b60208082526031908201527f6445766f74696e67204e46543a2045746865722073656e74206d69736d617463604082015270682077697468206d696e7420707269636560781b606082015260800190565b634e487b7160e01b600052603260045260246000fd5b634e487b7160e01b600052601160045260246000fd5b600060018201612e9957612e99612e71565b5060010190565b60008219821115612eb357612eb3612e71565b500190565b60208082526021908201527f455243313135353a206d696e7420746f20746865207a65726f206164647265736040820152607360f81b606082015260800190565b601f821115610db357600081815260208120601f850160051c81016020861015612f205750805b601f850160051c820191505b8181101561133257828155600101612f2c565b81516001600160401b03811115612f5857612f586126d3565b612f6c81612f668454612d4c565b84612ef9565b602080601f831160018114612fa15760008415612f895750858301515b600019600386901b1c1916600185901b178555611332565b600085815260208120601f198616915b82811015612fd057888601518255948401946001909101908401612fb1565b5085821015612fee5787850151600019600388901b60f8161c191681555b5050505050600190811b01905550565b634e487b7160e01b600052601260045260246000fd5b60008261302357613023612ffe565b500490565b60008282101561303a5761303a612e71565b500390565b60008261304e5761304e612ffe565b500690565b600081600019048311821515161561306d5761306d612e71565b500290565b60208082526028908201527f455243313135353a2069647320616e6420616d6f756e7473206c656e677468206040820152670dad2e6dac2e8c6d60c31b606082015260800190565b60208082526025908201527f455243313135353a207472616e7366657220746f20746865207a65726f206164604082015264647265737360d81b606082015260800190565b6020808252602a908201527f455243313135353a20696e73756666696369656e742062616c616e636520666f60408201526939103a3930b739b332b960b11b606082015260800190565b60408152600061315c6040830185612a65565b828103602084015261316e8185612a65565b95945050505050565b60208082526023908201527f455243313135353a206275726e2066726f6d20746865207a65726f206164647260408201526265737360e81b606082015260800190565b60208082526024908201527f455243313135353a206275726e20616d6f756e7420657863656564732062616c604082015263616e636560e01b606082015260800190565b6001600160a01b03868116825285166020820152604081018490526060810183905260a060808201819052600090613238908301846127e6565b979650505050505050565b60006020828403121561325557600080fd5b815161183e816126a0565b600060033d11156132795760046000803e5060005160e01c5b90565b600060443d101561328a5790565b6040516003193d81016004833e81513d6001600160401b0381602484011181841117156132b957505050505090565b82850191508151818111156132d15750505050505090565b843d87010160208285010111156132eb5750505050505090565b6132fa602082860101876126e9565b509095945050505050565b60208082526028908201527f455243313135353a204552433131353552656365697665722072656a656374656040820152676420746f6b656e7360c01b606082015260800190565b6001600160a01b0386811682528516602082015260a06040820181905260009061337990830186612a65565b828103606084015261338b8186612a65565b9050828103608084015261339f81856127e6565b9897505050505050505056fea264697066735822122020163cab6ca97e7140e5823acac45a79c1c1fefcd7d842b0a016d3319a3c3dbd64736f6c634300080f0033",
  "immutableReferences": {},
  "source": "// SPDX-License-Identifier: MIT\r\npragma solidity ^0.8.0;\r\n\r\n/// @notice tokens\r\nimport \"@openzeppelin/contracts/token/ERC1155/extensions/ERC1155Supply.sol\";\r\nimport \"@openzeppelin/contracts/token/ERC1155/ERC1155.sol\";\r\n\r\nimport \"@openzeppelin/contracts/utils/Counters.sol\";\r\nimport \"@openzeppelin/contracts/utils/math/SafeMath.sol\";\r\nimport \"@openzeppelin/contracts/security/Pausable.sol\";\r\nimport \"@openzeppelin/contracts/utils/Strings.sol\";\r\n\r\n/**\r\n * @title dEvoting NFT\r\n * @author Ghadi Mhawej\r\n **/\r\n\r\ncontract dEvotingNFT is ERC1155, ERC1155Supply, Pausable {\r\n    /// @notice using safe math for uints\r\n    using SafeMath for uint256;\r\n\r\n    /// @notice using Strings for uints conversion (tokenId)\r\n    using Strings for uint256;\r\n\r\n    /// @notice using Address for addresses extended functionality\r\n    using Address for address;\r\n\r\n    /// @notice using a counter to increment next Id to be minted\r\n    using Counters for Counters.Counter;\r\n\r\n    /// @notice Mapping minted tokens by address\r\n    mapping(address => uint256) private _minted;\r\n\r\n    /// @notice tokenIds to supply mapping\r\n    mapping(uint256 => uint256) public tokenMaxSupplies;\r\n\r\n    /// @notice The rate of minting per phase\r\n    uint256 public mintPrice;\r\n\r\n    /// @notice max amount of nfts that can be minted per wallet address\r\n    uint64 private _mintsPerAddressLimit;\r\n\r\n    /// @notice token id to be minted next\r\n    Counters.Counter private _tokenIdTracker;\r\n\r\n    /// @notice max tokenId that can be minted\r\n    uint256 public maxTokenId;\r\n\r\n    /// @notice public metadata locked flag\r\n    bool public locked;\r\n\r\n    /// @notice address owner\r\n    address public owner;\r\n\r\n    /// @notice Token name\r\n    string private _name;\r\n\r\n    /// @notice Token symbol\r\n    string private _symbol;\r\n\r\n    /// @notice Allowed mint bool\r\n    bool private _allowedMint;\r\n\r\n    /// @notice Minting events definition\r\n    event AdminMinted(\r\n        address indexed to,\r\n        uint256 indexed tokenId,\r\n        uint256 quantity\r\n    );\r\n    event Minted(address indexed to, uint256 indexed tokenId, uint256 quantity);\r\n\r\n    /// @notice metadata not locked modifier\r\n    modifier notLocked() {\r\n        require(!locked, \"dEvoting NFT: Metadata URIs are locked\");\r\n        _;\r\n    }\r\n\r\n    /// @notice only owner modifier\r\n    modifier onlyOwner() {\r\n        require(msg.sender == owner, \"dEvoting NFT: only owner\");\r\n        _;\r\n    }\r\n\r\n    /// @notice only owner modifier\r\n    modifier allowedMint() {\r\n        require(_allowedMint == true, \"dEvoting NFT: public mint not allowed\");\r\n        _;\r\n    }\r\n\r\n    /**\r\n     * @notice constructor\r\n     * @param name_ the name of the Contract\r\n     * @param symbol_ the token symbol\r\n     * @param uri_ token metadata base uri\r\n     **/\r\n    constructor(\r\n        string memory name_,\r\n        string memory symbol_,\r\n        string memory uri_,\r\n        uint256[] memory tokenIds_,\r\n        uint256[] memory tokenSupplies_\r\n    ) ERC1155(uri_) {\r\n        owner = msg.sender;\r\n        _name = name_;\r\n        _symbol = symbol_;\r\n        _initialAddTokens(tokenIds_, tokenSupplies_);\r\n        _mintsPerAddressLimit = 1;\r\n    }\r\n\r\n    /// @notice setting starting token id to 1\r\n    function _startTokenId() internal pure virtual returns (uint256) {\r\n        return 0;\r\n    }\r\n\r\n    ///@notice returns name of token\r\n    function name() public view virtual returns (string memory) {\r\n        return _name;\r\n    }\r\n\r\n    /// @notice returns symbol of token\r\n    function symbol() public view virtual returns (string memory) {\r\n        return _symbol;\r\n    }\r\n\r\n    /**\r\n     * @notice changes the minting cost\r\n     * @param mintCost new minting cost\r\n     **/\r\n    function changeMintCost(uint256 mintCost) public onlyOwner {\r\n        require(\r\n            mintCost != mintPrice,\r\n            \"dEvoting NFT: mint Cost cannot be same as previous\"\r\n        );\r\n        mintPrice = mintCost;\r\n    }\r\n\r\n    /**\r\n     * @notice setting token URI\r\n     * @param uri_ new URI\r\n     */\r\n    function setURI(string memory uri_) public onlyOwner {\r\n        require(\r\n            keccak256(abi.encodePacked(super.uri(0))) !=\r\n                keccak256(abi.encodePacked(uri_)),\r\n            \"ERROR: URI same as previous\"\r\n        );\r\n        _setURI(uri_);\r\n    }\r\n\r\n    /**\r\n     * @notice return existing URI\r\n     * @param id id of the token\r\n     */\r\n    function uri(uint256 id)\r\n        public\r\n        view\r\n        virtual\r\n        override\r\n        returns (string memory)\r\n    {\r\n        require(exists(id), \"dEvoting NFT: Nonexistent token\");\r\n        return string(abi.encodePacked(super.uri(0), id.toString(), \".json\"));\r\n    }\r\n\r\n    /**\r\n     * @notice nextId to mint\r\n     **/\r\n    function nextId() internal view returns (uint256) {\r\n        return _tokenIdTracker.current();\r\n    }\r\n\r\n    /// @notice pausing the contract minting and token transfer\r\n    function pause() public virtual onlyOwner {\r\n        _pause();\r\n    }\r\n\r\n    /// @notice unpausing the contract minting and token transfer\r\n    function unpause() public virtual onlyOwner {\r\n        _unpause();\r\n    }\r\n\r\n    function allowPublicMint(uint256 _mintCost, uint64 mintsPerAddressLimit)\r\n        public\r\n        onlyOwner\r\n    {\r\n        _allowedMint = true;\r\n        mintPrice = _mintCost;\r\n        _mintsPerAddressLimit = mintsPerAddressLimit;\r\n    }\r\n\r\n    /**\r\n     * @notice burn 1 token\r\n     * @param from addres of the owner of the token\r\n     * @param id id of the token\r\n     * @param amount amount to burn\r\n     */\r\n    function burn(\r\n        address from,\r\n        uint256 id,\r\n        uint256 amount\r\n    ) public {\r\n        _burn(from, id, amount);\r\n    }\r\n\r\n    /**\r\n     * @notice burn a batch of tokens\r\n     * @param from addres of the owner of the token\r\n     * @param ids id of the token\r\n     * @param amounts amount to burn\r\n     */\r\n    function burnBatch(\r\n        address from,\r\n        uint256[] memory ids,\r\n        uint256[] memory amounts\r\n    ) public {\r\n        _burnBatch(from, ids, amounts);\r\n    }\r\n\r\n    /**\r\n     * @notice a function for admins to mint cost-free\r\n     * @param to the address to send the minted token to\r\n     * @param amount amount of tokens to mint\r\n     **/\r\n    function adminMint(\r\n        address to,\r\n        uint256 id,\r\n        uint256 amount\r\n    ) external whenNotPaused onlyOwner {\r\n        require(to != address(0), \"dEvoting NFT: Address cannot be 0\");\r\n\r\n        limitNotExceeded(id, amount);\r\n\r\n        checkMintLimit(_msgSender(), amount);\r\n\r\n        _mint(to, id, amount, \"\");\r\n\r\n        _minted[to] = amount;\r\n\r\n        emit AdminMinted(to, id, amount);\r\n    }\r\n\r\n    /**\r\n     * @notice the public/presale minting function\r\n     * @param to the address to send the minted token to\r\n     * @param id id of the token to mint\r\n     * @param amount quantity of tokens to mint\r\n     **/\r\n    function mint(\r\n        address to,\r\n        uint256 id,\r\n        uint256 amount\r\n    ) public payable allowedMint {\r\n        uint256 received = msg.value;\r\n\r\n        require(to != address(0), \"dEvoting NFT: Address cannot be 0\");\r\n        require(\r\n            received == mintPrice.mul(amount),\r\n            \"dEvoting NFT: Ether sent mismatch with mint price\"\r\n        );\r\n\r\n        limitNotExceeded(id, amount);\r\n\r\n        checkMintLimit(_msgSender(), amount);\r\n\r\n        _mint(to, id, amount, \"\");\r\n\r\n        _minted[to] = amount;\r\n\r\n        emit Minted(to, id, amount);\r\n    }\r\n\r\n    /**\r\n     * @notice the public minting function -- requires 1 ether sent\r\n     * @param to the address to send the minted token to\r\n     * @param ids ids of the minted tokens\r\n     * @param amounts quantity of tokens to mint\r\n     **/\r\n    function mintBatch(\r\n        address to,\r\n        uint256[] memory ids,\r\n        uint256[] memory amounts\r\n    ) public payable allowedMint {\r\n        uint256 received = msg.value;\r\n        uint256 amount = 0;\r\n\r\n        require(to != address(0), \"dEvoting NFT: Address cannot be 0\");\r\n\r\n        for (uint256 i = 0; i < amounts.length; i++) {\r\n            limitNotExceeded(ids[i], amounts[i]);\r\n            amount += amounts[i];\r\n        }\r\n\r\n        require(\r\n            received == mintPrice.mul(amount),\r\n            \"dEvoting NFT: Ether sent mismatch with mint price\"\r\n        );\r\n\r\n        checkMintLimit(_msgSender(), amount);\r\n\r\n        _mintBatch(to, ids, amounts, \"\");\r\n\r\n        for (uint256 i = 0; i < amounts.length; i++) {\r\n            _tokenIdTracker.increment();\r\n            _minted[to] = amount;\r\n            emit Minted(to, ids[i], amounts[i]);\r\n        }\r\n    }\r\n\r\n    /**\r\n     * @notice transfer batch of tokens\r\n     * @param from address to transfer from\r\n     * @param to address to transfer to\r\n     * @param ids ids of the token transfered\r\n     * @param amounts amount of token to transfer\r\n     * @param data data to pass while transfer\r\n     */\r\n    function batchTransferFrom(\r\n        address from,\r\n        address to,\r\n        uint256[] memory ids,\r\n        uint256[] memory amounts,\r\n        bytes memory data\r\n    ) public allowedMint {\r\n        safeBatchTransferFrom(from, to, ids, amounts, data);\r\n    }\r\n\r\n    /**\r\n     * @notice transfer token\r\n     * @param from address to transfer from\r\n     * @param to address to transfer to\r\n     * @param id id of the token transfered\r\n     * @param amount amount of token to transfer\r\n     * @param data data to pass while transfer\r\n     */\r\n    function transferFrom(\r\n        address from,\r\n        address to,\r\n        uint256 id,\r\n        uint256 amount,\r\n        bytes memory data\r\n    ) public allowedMint {\r\n        safeTransferFrom(from, to, id, amount, data);\r\n    }\r\n\r\n    /**\r\n     * @notice the public function for checking if more tokens can be minted\r\n     * @param id id of the token\r\n     * @param amount amount of tokens being minted\r\n     **/\r\n    function limitNotExceeded(uint256 id, uint256 amount)\r\n        public\r\n        view\r\n        returns (bool)\r\n    {\r\n        if (tokenMaxSupplies[id] > 0) {\r\n            require(\r\n                totalSupply(id).add(amount) <= tokenMaxSupplies[id],\r\n                \"dEvoting NFT: ID supply exceeded\"\r\n            );\r\n        } else {\r\n            require(!exists(id), \"\");\r\n            require(\r\n                amount == 1 && nextId() <= maxTokenId,\r\n                \"dEvoting NFT: NFT supply exceeded\"\r\n            );\r\n        }\r\n        return true;\r\n    }\r\n\r\n    /**\r\n     * @notice checks if an address reached limit per wallet\r\n     * @param minter address user minting nft\r\n     * @param amount amount of tokens being minted\r\n     **/\r\n    function checkMintLimit(address minter, uint256 amount)\r\n        public\r\n        view\r\n        returns (bool)\r\n    {\r\n        require(\r\n            _minted[minter].add(amount) <= _mintsPerAddressLimit,\r\n            \"dEvoting NFT: max NFT mints per address exceeded\"\r\n        );\r\n        return true;\r\n    }\r\n\r\n    /**\r\n     * @notice add initial token ids with their respective supplies\r\n     * @param tokenIds_ list of token ids to be added\r\n     * @param tokenSupplies_ supply of token id\r\n     **/\r\n    function _initialAddTokens(\r\n        uint256[] memory tokenIds_,\r\n        uint256[] memory tokenSupplies_\r\n    ) private {\r\n        require(\r\n            tokenIds_.length == tokenSupplies_.length,\r\n            \"dEvoting NFT: IDs/Supply arity mismatch\"\r\n        );\r\n        for (uint256 i = 0; i < tokenIds_.length; i++) {\r\n            tokenMaxSupplies[tokenIds_[i]] = tokenSupplies_[i];\r\n        }\r\n    }\r\n\r\n    /**\r\n     * @notice add new token id with its respective supply\r\n     * @param tokenIds_ list of token ids to be added\r\n     * @param tokenSupplies_ supply of token id\r\n     **/\r\n    function addTokensAndChangeMaxSupply(\r\n        uint256[] memory tokenIds_,\r\n        uint256[] memory tokenSupplies_,\r\n        uint256 maxTokenId_\r\n    ) public onlyOwner {\r\n        require(\r\n            tokenIds_.length == tokenSupplies_.length,\r\n            \"dEvoting NFT: IDs/Supply arity mismatch\"\r\n        );\r\n        require(\r\n            maxTokenId + tokenIds_.length <= maxTokenId_,\r\n            \"dEvoting NFT: tokens added mismatch maxSupply\"\r\n        );\r\n        for (uint256 i = 0; i < tokenIds_.length; i++) {\r\n            require(\r\n                !exists(tokenIds_[i]),\r\n                \"dEvoting NFT: token ID already exists\"\r\n            );\r\n            tokenMaxSupplies[tokenIds_[i]] = tokenSupplies_[i];\r\n        }\r\n        maxTokenId = maxTokenId_;\r\n    }\r\n\r\n    /**\r\n     * @notice before token transfer hook override\r\n     * @param operator address of the operator\r\n     * @param from address to send tokens from\r\n     * @param to address to send tokens to\r\n     * @param ids ids of the tokens to send\r\n     * @param amounts amount of each token\r\n     * @param data data to pass while sending\r\n     */\r\n    function _beforeTokenTransfer(\r\n        address operator,\r\n        address from,\r\n        address to,\r\n        uint256[] memory ids,\r\n        uint256[] memory amounts,\r\n        bytes memory data\r\n    ) internal virtual override(ERC1155, ERC1155Supply) {\r\n        super._beforeTokenTransfer(operator, from, to, ids, amounts, data);\r\n        require(!paused(), \"dEvoting NFT: token transfer while paused\");\r\n        if (from == address(0)) {\r\n            for (uint256 i = 0; i < ids.length; ++i) {\r\n                _minted[to] += _minted[to].add(amounts[i]);\r\n            }\r\n        }\r\n    }\r\n}\r\n",
  "sourcePath": "C:\\Users\\Ghadi\\Desktop\\Portfolio\\dEvoting\\blockend\\contracts\\dEvotingNFT.sol",
  "compiler": {
    "name": "solc",
    "version": "0.8.15+commit.e14f2714.Emscripten.clang"
  },
  "schemaVersion": "3.4.4",
  "updatedAt": "2022-06-19T12:49:39.338Z",
  "devdoc": {
    "author": "Ghadi Mhawej*",
    "kind": "dev",
    "methods": {
      "addTokensAndChangeMaxSupply(uint256[],uint256[],uint256)": {
        "params": {
          "tokenIds_": "list of token ids to be added",
          "tokenSupplies_": "supply of token id*"
        }
      },
      "adminMint(address,uint256,uint256)": {
        "params": {
          "amount": "amount of tokens to mint*",
          "to": "the address to send the minted token to"
        }
      },
      "balanceOf(address,uint256)": {
        "details": "See {IERC1155-balanceOf}. Requirements: - `account` cannot be the zero address."
      },
      "balanceOfBatch(address[],uint256[])": {
        "details": "See {IERC1155-balanceOfBatch}. Requirements: - `accounts` and `ids` must have the same length."
      },
      "batchTransferFrom(address,address,uint256[],uint256[],bytes)": {
        "params": {
          "amounts": "amount of token to transfer",
          "data": "data to pass while transfer",
          "from": "address to transfer from",
          "ids": "ids of the token transfered",
          "to": "address to transfer to"
        }
      },
      "burn(address,uint256,uint256)": {
        "params": {
          "amount": "amount to burn",
          "from": "addres of the owner of the token",
          "id": "id of the token"
        }
      },
      "burnBatch(address,uint256[],uint256[])": {
        "params": {
          "amounts": "amount to burn",
          "from": "addres of the owner of the token",
          "ids": "id of the token"
        }
      },
      "changeMintCost(uint256)": {
        "params": {
          "mintCost": "new minting cost*"
        }
      },
      "checkMintLimit(address,uint256)": {
        "params": {
          "amount": "amount of tokens being minted*",
          "minter": "address user minting nft"
        }
      },
      "constructor": {
        "params": {
          "name_": "the name of the Contract",
          "symbol_": "the token symbol",
          "uri_": "token metadata base uri*"
        }
      },
      "exists(uint256)": {
        "details": "Indicates whether any token exist with a given id, or not."
      },
      "isApprovedForAll(address,address)": {
        "details": "See {IERC1155-isApprovedForAll}."
      },
      "limitNotExceeded(uint256,uint256)": {
        "params": {
          "amount": "amount of tokens being minted*",
          "id": "id of the token"
        }
      },
      "mint(address,uint256,uint256)": {
        "params": {
          "amount": "quantity of tokens to mint*",
          "id": "id of the token to mint",
          "to": "the address to send the minted token to"
        }
      },
      "mintBatch(address,uint256[],uint256[])": {
        "params": {
          "amounts": "quantity of tokens to mint*",
          "ids": "ids of the minted tokens",
          "to": "the address to send the minted token to"
        }
      },
      "paused()": {
        "details": "Returns true if the contract is paused, and false otherwise."
      },
      "safeBatchTransferFrom(address,address,uint256[],uint256[],bytes)": {
        "details": "See {IERC1155-safeBatchTransferFrom}."
      },
      "safeTransferFrom(address,address,uint256,uint256,bytes)": {
        "details": "See {IERC1155-safeTransferFrom}."
      },
      "setApprovalForAll(address,bool)": {
        "details": "See {IERC1155-setApprovalForAll}."
      },
      "setURI(string)": {
        "params": {
          "uri_": "new URI"
        }
      },
      "supportsInterface(bytes4)": {
        "details": "See {IERC165-supportsInterface}."
      },
      "totalSupply(uint256)": {
        "details": "Total amount of tokens in with a given id."
      },
      "transferFrom(address,address,uint256,uint256,bytes)": {
        "params": {
          "amount": "amount of token to transfer",
          "data": "data to pass while transfer",
          "from": "address to transfer from",
          "id": "id of the token transfered",
          "to": "address to transfer to"
        }
      },
      "uri(uint256)": {
        "params": {
          "id": "id of the token"
        }
      }
    },
    "title": "dEvoting NFT",
    "version": 1
  },
  "userdoc": {
    "events": {
      "AdminMinted(address,uint256,uint256)": {
        "notice": "Minting events definition"
      }
    },
    "kind": "user",
    "methods": {
      "addTokensAndChangeMaxSupply(uint256[],uint256[],uint256)": {
        "notice": "add new token id with its respective supply"
      },
      "adminMint(address,uint256,uint256)": {
        "notice": "a function for admins to mint cost-free"
      },
      "batchTransferFrom(address,address,uint256[],uint256[],bytes)": {
        "notice": "transfer batch of tokens"
      },
      "burn(address,uint256,uint256)": {
        "notice": "burn 1 token"
      },
      "burnBatch(address,uint256[],uint256[])": {
        "notice": "burn a batch of tokens"
      },
      "changeMintCost(uint256)": {
        "notice": "changes the minting cost"
      },
      "checkMintLimit(address,uint256)": {
        "notice": "checks if an address reached limit per wallet"
      },
      "constructor": {
        "notice": "constructor"
      },
      "limitNotExceeded(uint256,uint256)": {
        "notice": "the public function for checking if more tokens can be minted"
      },
      "locked()": {
        "notice": "public metadata locked flag"
      },
      "maxTokenId()": {
        "notice": "max tokenId that can be minted"
      },
      "mint(address,uint256,uint256)": {
        "notice": "the public/presale minting function"
      },
      "mintBatch(address,uint256[],uint256[])": {
        "notice": "the public minting function -- requires 1 ether sent"
      },
      "mintPrice()": {
        "notice": "The rate of minting per phase"
      },
      "name()": {
        "notice": "returns name of token"
      },
      "owner()": {
        "notice": "address owner"
      },
      "pause()": {
        "notice": "pausing the contract minting and token transfer"
      },
      "setURI(string)": {
        "notice": "setting token URI"
      },
      "symbol()": {
        "notice": "returns symbol of token"
      },
      "tokenMaxSupplies(uint256)": {
        "notice": "tokenIds to supply mapping"
      },
      "transferFrom(address,address,uint256,uint256,bytes)": {
        "notice": "transfer token"
      },
      "unpause()": {
        "notice": "unpausing the contract minting and token transfer"
      },
      "uri(uint256)": {
        "notice": "return existing URI"
      }
    },
    "version": 1
  }
}